{
  "abi": [
    {
      "inputs": [
        {
          "internalType": "uint256",
          "name": "_value",
          "type": "uint256"
        }
      ],
      "stateMutability": "nonpayable",
      "type": "constructor"
    },
    {
      "inputs": [],
      "name": "get",
      "outputs": [
        {
          "internalType": "uint256",
          "name": "",
          "type": "uint256"
        }
      ],
      "stateMutability": "view",
      "type": "function"
    },
    {
      "inputs": [
        {
          "internalType": "uint256",
          "name": "newValue",
          "type": "uint256"
        }
      ],
      "name": "set",
      "outputs": [],
      "stateMutability": "nonpayable",
      "type": "function"
    },
    {
      "inputs": [],
      "name": "value",
      "outputs": [
        {
          "internalType": "uint256",
          "name": "",
          "type": "uint256"
        }
      ],
      "stateMutability": "view",
      "type": "function"
    }
  ],
  "bytecode": {
    "object": "0x608060405234801561001057600080fd5b5060405161012038038061012083398101604081905261002f91610037565b600055610050565b60006020828403121561004957600080fd5b5051919050565b60c28061005e6000396000f3fe6080604052348015600f57600080fd5b5060043610603c5760003560e01c80633fa4f24514604157806360fe47b114605b5780636d4ce63c14606d575b600080fd5b604960005481565b60405190815260200160405180910390f35b606b60663660046074565b600055565b005b6000546049565b600060208284031215608557600080fd5b503591905056fea2646970667358221220b4b7f41c9483873cb756d298faf2ba10f0f4fb4c2c0b249b3fafef0f2d0a21dc64736f6c634300080d0033",
    "linkReferences": {}
  },
  "methodIdentifiers": {
    "get()": "6d4ce63c",
    "set(uint256)": "60fe47b1",
    "value()": "3fa4f245"
  },
  "id": 7
}